:020000040800F2
:1000000000500020551700088107000883070008EA
:10001000850700088707000889070008000000001E
:100020000000000000000000000000008B07000836
:100030008D070008000000008F07000891070008E6
:100040009D1700089D1700089D1700089D170008C0
:100050009D1700089D1700089D1700089D170008B0
:100060009D1700089D1700089D1700089D170008A0
:100070009D1700089D1700089D1700089D17000890
:100080009D1700089D1700089D1700089D17000880
:100090009D1700089D1700089D1700089D17000870
:1000A0009D1700089D1700089D1700089D17000860
:1000B0009D1700089D1700089D1700089D17000850
:1000C0009D1700089D1700089D1700089D17000840
:1000D0009D1700089D1700089D1700089D17000830
:1000E000990700089D1700089D17000800000000F0
:1000F0000000000000000000000000000000000000
:0C01000000000000000000005FF808F1A3
:10011000034613F8012B002AFBD1181A0138704747
:1001200010B5054C237833B9044B13B10448AFF331
:1001300000800123237010BD880000200000000013
:100140003C21000808B5034B1BB103490348AFF33A
:10015000008008BD000000008C0000203C21000849
:100160002DE9F04188B00024049405940694079486
:100170002C4B9A6942F010029A619A6902F01002BF
:100180000092009A9A6942F020029A619A6902F0FC
:1001900020020192019A9A6942F004029A619A69D6
:1001A00002F004020292029A9A6942F008029A61ED
:1001B0009B6903F008030393039BDFF86C802246DE
:1001C0002021404600F0CCFC184E22460221304649
:1001D00000F0C6FC4FF400530493154B05930694AE
:1001E00004A9144800F0AAFB2023049301270597D3
:1001F00006940225079504A9404600F09FFB04954C
:1002000005970694079504A9304600F097FB22460F
:100210002146282000F038FB282000F06DFB08B0B4
:10022000BDE8F0810010024000080140000C0140D0
:1002300000002110001001400FB410B582B004ABD3
:1002400053F8042B01930A4C4FF48071204601F0BF
:10025000FFFA2046FFF75CFF4FF0FF3382B22146E2
:10026000044801F0B6F902B0BDE8104004B0704790
:10027000A4000020E802002072B6FEE708B50A4894
:100280000A4B03600A4B436000238360C3604FF452
:100290008042026143618361C361036200F07EFCBE
:1002A00000B908BDFFF7E8FFA4010020005400409A
:1002B000A086010008B50A480A4B03600A4B436058
:1002C00000238360C3604FF4804202614361836115
:1002D000C361036200F062FC00B908BDFFF7CCFF08
:1002E000F801002000580040A086010008B50D4824
:1002F0000D4B03604FF48273436000238360C3603F
:10030000036143614FF400728261C361036243621F
:1003100083620A23C36201F051F800B908BDFFF7F8
:10032000ABFF00BF4C0200200038004008B50A486F
:100330000A4B03604FF4E133436000238360C360E2
:1003400003610C2242618361C36101F013F900B9BA
:1003500008BDFFF791FF00BFA40200200038014054
:1003600008B50A480A4B03604FF4E13343600023A9
:100370008360C36003610C2242618361C36101F049
:10038000F9F800B908BDFFF777FF00BFE8020020C9
:100390000044004008B50A480A4B03604FF4E133BB
:1003A000436000238360C36003610C224261836168
:1003B000C36101F0DFF800B908BDFFF75DFF00BFC2
:1003C0002C0300200048004000B591B028220021F5
:1003D00006A801F009FA0023019302930393049302
:1003E00005930223069301220A9210220B920D9389
:1003F0004FF460130F9306A800F0C4FC80B90F23DC
:10040000019302210291002303934FF4806204922E
:10041000059301A800F0F6FE20B911B05DF804FBC9
:10042000FFF72AFFFFF728FF10B590B000F0E2F9C0
:10043000FFF7CAFFFFF794FEFFF720FFFFF73AFF31
:10044000FFF754FFFFF772FFFFF78AFFFFF7A2FFE6
:1004500001F02CF91E4B93E8070010AB03E90700ED
:10046000142400E0013420211A4800F07FFB4FF4EF
:100470007A7000F0E3F90022174BCDE90A23282314
:100480000893C822079232220692059304940AA385
:10049000D3E90023CDE9022309A3D3E90023CDE961
:1004A000002309A3D3E9002301210C48FFF7C4FE70
:1004B000322CD7DD1424D5E7000000403333D33F7E
:1004C000000000A09999C93F000000A09999B93F88
:1004D00054210008000801400000E03F60210008AE
:1004E00082B00E4B9A6942F001029A619A6902F059
:1004F00001020092009ADA6942F08052DA61DB6907
:1005000003F080530193019B054A536823F0E06395
:1005100043F00073536002B0704700BF0010024008
:100520000000014010B588B00023049305930693A2
:1005300007930368224A934204D0224A93421FD071
:1005400008B010BD204CA36943F00803A361A36960
:1005500003F008030093009BC02304931223059328
:100560000323079304A9194800F0E8F9E36943F469
:100570000013E361E36903F400130193019BDFE7D8
:10058000114CA36943F00803A361A36903F00803B6
:100590000293029B4FF440630493122305930323B9
:1005A000079304A9094800F0C9F9E36943F48003FB
:1005B000E361E36903F480030393039BC0E700BF97
:1005C000005400400058004000100240000C014060
:1005D00010B586B000230293039304930593026839
:1005E000174B9A4201D006B010BD03F5EC33DA691F
:1005F00042F48042DA61DA6902F480420092009AA1
:100600009A6942F008029A619B6903F0080301931A
:10061000019B4FF42043029302230393032305938A
:10062000084C02A9204600F089F94FF48043029358
:1006300000230393049302A9204600F07FF9D2E738
:1006400000380040000C014010B58AB0002306932A
:100650000793089309930368424A934207D0424A9A
:1006600093422ED0414A934248D00AB010BD404B2D
:100670009A6942F480429A619A6902F48042009237
:10068000009A9A6942F004029A619B6903F004039C
:100690000193019B4FF400730693022307930323F6
:1006A0000993344C06A9204600F048F94FF48063C2
:1006B000069300230793089306A9204600F03EF90D
:1006C000D3E72B4BDA6942F40032DA61DA6902F4DB
:1006D00000320292029A9A6942F004029A619B697E
:1006E00003F004030393039B0C2306930223079355
:1006F000099306A91F4800F021F9B6E71C4BDA69F7
:1007000042F48022DA61DA6902F480220492049AC7
:100710009A6942F010029A619B6903F010030593F5
:10072000059B4FF4806306930223079303230993E9
:10073000114C06A9204600F001F94FF4006306931E
:1007400000230793089306A9204600F0F7F80B4A08
:10075000536823F0300343F0E06343F01003536029
:1007600083E700BF003801400044004000480040DB
:10077000001002400008014000100140000001404C
:10078000FEE7FEE7FEE7FEE7FEE7704770477047CB
:1007900008B500F041F808BD08B54FF4005000F06E
:1007A000EFF908BD7047000010B504460E4B1878ED
:1007B0004FF47A73B3FBF0F30C4A1068B0FBF3F01C
:1007C00000F0A8F868B90F2C01D901200AE0002236
:1007D00021464FF0FF3000F057F8054B1C60002019
:1007E00000E0012010BD00BF040000200000002038
:1007F0000800002008B5074A136843F0100313608F
:10080000032000F02FF80020FFF7CEFFFFF768FE6F
:10081000002008BD00200240034A1168034B1B78EA
:100820000B441360704700BF7003002004000020D9
:10083000014B1868704700BF7003002038B50446AC
:10084000FFF7F6FF0546B4F1FF3F02D0044B1B78DB
:100850001C44FFF7EDFF401BA042FAD338BD00BF98
:1008600004000020074AD36823F4E0631B041B0C38
:10087000000200F4E060034343F0BF6343F400333D
:10088000D360704700ED00E000B5194BDB68C3F39F
:100890000223C3F1070CBCF1040F28BF4FF0040C76
:1008A00003F1040EBEF1060F18D9033B4FF0FF3ED3
:1008B0000EFA0CFC21EA0C0199400EFA03F322EA2D
:1008C0000303194300280BDB0901C9B200F16040A2
:1008D00000F5614080F800135DF804FB0023E5E7B4
:1008E00000F00F000901C9B2024B1954F4E700BF30
:1008F00000ED00E014ED00E0002807DB00F01F022F
:10090000400901239340024A42F82030704700BF5B
:1009100000E100E00138B0F1807F0BD24FF0E0231E
:100920005861054AF02182F82310002098610722BF
:100930001A6170470120704700ED00E070B582B089
:100940000024A446A6E0804DAA4210D007D97F4DCE
:10095000AA420CD005F58035AA4208D013E0A5F5CF
:100960008015AA4203D005F57025AA4207D18A68EE
:10097000002A58D0012A51D04361082403E0A5F58C
:100980008015AA42F3D0BEF1FF0F4ED80646BEF145
:10099000FF0F4CD84FEA8C0233680F25954023EAAD
:1009A000050304FA02F2134333604B6813F0805FCF
:1009B0006ED0674B9A6942F001029A619B6903F01D
:1009C00001030193019B4FEA9C02951C614B53F874
:1009D00025600CF003039D000F23AB4026EA0306BD
:1009E0005D4B984229D003F58063984200F08E80D9
:1009F00003F58063984200F08B8003F58063984292
:100A000019D004231AE0CC68BDE7CC680434BAE7F7
:100A1000CC680834B7E7CC680C34B4E70361082429
:100A2000B1E70024AFE70424ADE7061DAFE7ACF162
:100A300008029200B0E7032300E00023AB403343F9
:100A40000232444D45F822304B6813F4803F61D0A8
:100A5000424A136843EA0E0313604B6813F4003FE5
:100A60005ED03E4A536843EA0E0353604B6813F46A
:100A7000801F5BD0394A936843EA0E0393604B684A
:100A800013F4001F58D0354AD36843EA0E03D360ED
:100A90000CF1010C0A6832FA0CF353D0012303FA6B
:100AA0000CF302EA030E33EA0202F1D14A68122A79
:100AB0003FF649AF122A3FF666AF01A555F822F07E
:100AC0006F090008070A0008110A0008230A000835
:100AD00087090008870900088709000887090008B6
:100AE00087090008870900088709000887090008A6
:100AF0008709000887090008870900088709000896
:100B0000870900080B0A0008170A0008012395E767
:100B1000022393E7114A136823EA0E0313609CE74C
:100B20000E4A536823EA0E0353609FE70B4A93680B
:100B300023EA0E039360A2E7084AD36823EA0E0370
:100B4000D360A5E702B070BD000022100000311094
:100B50000010024000000140000801400004014074
:100B60000AB101617047090401617047C36801EA75
:100B7000030221EA030141EA024101617047704723
:100B800008B5054B5B69034200D108BD024B5861B3
:100B9000FFF7F5FFF9E700BF00040140002800F06F
:100BA000CC8070B5044690F83D30002B77D02423DC
:100BB00084F83D302268136823F001031360226833
:100BC000136843F4004313602268136823F400435E
:100BD000136000F0D3FB62685A4B9A4264D85A4BB8
:100BE00098428CBF00230123002B40F0A880574976
:100BF000A1FB00318B0C25686A6822F03F0242EAB3
:100C000091426A6021680A6A22F03F0266684D4D8F
:100C1000AE424FD8013313430B622168CA6922F4F4
:100C20004F4222F0FF026668464B9E424CD8431E5C
:100C30007600B3FBF6F3013340F6FC70034278D044
:100C4000C3F30B031343CB6121680B6823F0C0038C
:100C5000E269206A024313430B6021688B6823F426
:100C6000034323F0FF032269E068024313438B60D0
:100C70002168CB6823F0FF036269A0690243134334
:100C8000CB602268136843F00103136000202064E6
:100C9000202384F83D30206384F83E0070BD80F846
:100CA0003C30FFF73FFC82E7294B98428CBF002382
:100CB000012399E74FF4967505FB03F3254DA5FB3A
:100CC00003539B090133A6E7A368BBB9451E06EB96
:100CD000460CB5FBFCF50135C5F30B05B5FA85F5FA
:100CE0006D0945BBC3B9013806EB4603B0FBF3F30E
:100CF0000133C3F30B0343F40043A3E7451E06EBA4
:100D0000860C0CEB8C0CB5FBFCF50135C5F30B0523
:100D1000B5FA85F56D09E4E7013806EB860303EBC8
:100D20008303B0FBF3F30133C3F30B0343F44043FA
:100D300088E7042386E7012384E701207047012028
:100D4000ACE700BFA08601007F841E0083DE1B434A
:100D5000FF083D00D34D621082B0084B1B68084A63
:100D6000A2FB03235B0A00FB03F3019300BF019B7B
:100D70005A1E0192002BF9D102B0704700000020EA
:100D8000D34D6210002800F0F18170B582B00446A6
:100D9000036813F0010F2CD0994B5B6803F00C0330
:100DA000042B1DD0964B5B6803F00C03082B12D06C
:100DB0006368B3F5803F41D0002B55D103F18043E8
:100DC00003F504331A6822F480321A601A6822F498
:100DD00080221A6037E08A4B5B6813F4803FE7D0CB
:100DE000874B1B6813F4003F03D06368002B00F0AF
:100DF000BF81236813F0020F75D0814B5B6813F03D
:100E00000C0F5FD07E4B5B6803F00C03082B54D0B3
:100E10002369002B00F08A807A4B01221A60FFF7C9
:100E200007FD0546764B1B6813F0020F75D1FFF7DF
:100E3000FFFC401B0228F5D903209EE1704A13688D
:100E400043F480331360636843B3FFF7F1FC054656
:100E50006B4B1B6813F4003FCBD1FFF7E9FC401B41
:100E60006428F5D9032088E1B3F5A02F09D0644B9D
:100E70001A6822F480321A601A6822F480221A60FA
:100E8000E1E703F18043A3F53C331A6842F4802282
:100E90001A601A6842F480321A60D4E7FFF7C8FC7F
:100EA0000546574B1B6813F4003FA2D0FFF7C0FC68
:100EB000401B6428F5D903205FE1514B5B6813F4B4
:100EC000803FA5D14E4B1B6813F0020F03D023695E
:100ED000012B40F04F814A4A136823F0F8036169FF
:100EE00043EAC1031360236813F0080F33D0A369EA
:100EF000002B5CD0434B0122C3F88024FFF798FC01
:100F000005463F4B5B6A13F0020F21D1FFF790FCBF
:100F1000401B0228F5D903202FE1394A136823F03A
:100F2000F803616943EAC1031360DCE7354B002233
:100F30001A60FFF77DFC0546314B1B6813F0020F6A
:100F4000D1D0FFF775FC401B0228F5D9032014E12E
:100F50000120FFF701FF236813F0040F00F09680D3
:100F6000274BDB6913F0805F34D1254BDA6942F0FF
:100F70008052DA61DB6903F080530193019B012504
:100F8000214B1B6813F4807F26D0E368012B3DD0F2
:100F9000002B53D103F1804303F504331A6A22F086
:100FA00001021A621A6A22F004021A6233E0154B37
:100FB0000022C3F88024FFF73BFC0546104B5B6A18
:100FC00013F0020FC7D0FFF733FC401B0228F5D9FE
:100FD0000320D2E00025D3E70B4A136843F4807363
:100FE0001360FFF725FC0646074B1B6813F4807F50
:100FF000CBD1FFF71DFC801B6428F5D90320BCE092
:101000000010024000004242007000405F4A136A34
:1010100043F001031362E36833B3FFF709FC0646AC
:101020005A4B1B6A13F0020F2FD1FFF701FC801BF4
:1010300041F288339842F3D903209EE0052B09D072
:10104000524B1A6A22F001021A621A6A22F0040252
:101050001A62E0E74D4B1A6A42F004021A621A6AF9
:1010600042F001021A62D6E7FFF7E2FB0646474B61
:101070001B6A13F0020F08D0FFF7DAFB801B41F266
:1010800088339842F3D9032077E0E5B9E369002B70
:1010900072D03E4A526802F00C02082A56D0022B47
:1010A00017D03B4B00221A66FFF7C2FB0446374BB2
:1010B0001B6813F0007F47D0FFF7BAFB001B022824
:1010C000F5D9032059E0314AD36923F08053D36125
:1010D000DCE72F4B00221A66FFF7AAFB05462B4BD5
:1010E0001B6813F0007F06D0FFF7A2FB401B02280D
:1010F000F5D9032041E0236AB3F5803F1AD0234994
:101100004B6823F47413226A606A024313434B60F2
:101110001F4B01221A66FFF78BFB04461B4B1B6813
:1011200013F0007F0ED1FFF783FB001B0228F5D9D7
:10113000032022E0154A536823F40033A1680B43CF
:101140005360DCE7002018E0002016E0012B16D0E9
:101150000E4B5B6803F48031226A914211D103F493
:101160007013626A93420ED1002006E0012070479E
:10117000012002E0012000E0002002B070BD01204B
:10118000FBE70120F9E70120F7E700BF001002406C
:101190000000424286B0174B0FCB0DF1180C0CE942
:1011A0000F0040F20123ADF80430134B5B6803F0ED
:1011B0000C02082A02D0114806B07047C3F38342DC
:1011C00018326A4412F8100C13F4803F0DD00A4B09
:1011D0005B68C3F3404318336B4413F8143C074A6D
:1011E00002FB00F0B0FBF3F0E6E7054B03FB00F079
:1011F000E2E700BFE82100080010024000127A0078
:1012000000093D00002800F0A08070B50D4604469E
:10121000524B1B6803F007038B420BD24F4A1368F3
:1012200023F007030B431360136803F007038B429B
:1012300040F08D80236813F0020F17D013F0040FD5
:1012400004D0474A536843F4E0635360236813F0C3
:10125000080F04D0424A536843F460535360404A35
:10126000536823F0F003A1680B435360236813F025
:10127000010F31D06368012B20D0022B25D0384AD2
:10128000126812F0020F64D035494A6822F0030256
:1012900013434B60FFF7CCFA0646314B5B6803F013
:1012A0000C036268B3EB820F16D0FFF7C1FA801B04
:1012B00041F288339842F0D9032045E0284A126869
:1012C00012F4003FE0D101203EE0254A126812F0FE
:1012D000007FD9D1012037E0204B1B6803F00703C2
:1012E000AB420AD91D4A136823F007032B4313604E
:1012F000136803F00703AB422DD1236813F0040FEA
:1013000006D0174A536823F4E063E1680B43536047
:10131000236813F0080F07D0114A536823F4605371
:10132000216943EAC1035360FFF734FF0C4B5B684C
:10133000C3F303130B4AD35CD8400B4B18600B4B21
:101340001868FFF731FA002070BD012070470120B6
:10135000FAE70120F8E70120F6E700BF002002408D
:1013600000100240D02100080000002008000020EA
:10137000014B1868704700BF0000002008B5FFF758
:10138000F7FF044B5B68C3F30223034AD35CD840E6
:1013900008BD00BF00100240E021000808B5FFF7BB
:1013A000E7FF044B5B68C3F3C223034AD35CD84016
:1013B00008BD00BF00100240E0210008002856D000
:1013C00010B50446436A33B94368B3F5827F05D04C
:1013D0000023C36102E00023036143610023A36291
:1013E00094F85130002B3CD0022384F8513022680D
:1013F000136823F040031360636803F48273A268E8
:1014000002F404421343E26802F4006213432269C7
:1014100002F002021343626902F001021343A2695F
:1014200002F400721343E26902F038021343226AA5
:1014300002F080021343A26A02F4005221681343AF
:101440000B60638B226803F0040353602268D36946
:1014500023F40063D36100206065012384F85130D8
:1014600010BD84F850302046FFF7B2F8BCE70120E9
:101470007047000010B504460268136923F4405316
:10148000C1680B43136183680269134342691A43BD
:101490000168CB6823F4B05323F00C031343CB60F3
:1014A0000268536923F4407381690B4353610268F6
:1014B000134B9A4220D0FFF761FF024602EB8202F3
:1014C00002EB820263689B00B2FBF3F20D48A0FBC3
:1014D00002314909642303FB11231B013233A0FBB2
:1014E00003235B0903F0F00202EB011203F00F0388
:1014F000216813448B6010BDFFF750FF0246DDE703
:10150000003801401F85EB512DE9F84305460F4691
:1015100016469946DDF820802C68246837EA0403D3
:101520000CBF4FF0010C4FF0000CB4451FD1B8F1C7
:10153000FF3FF1D0B8F1000F05D0FFF779F9A0EB2C
:1015400009004045E8D92A68D36823F4D073D360F2
:101550002A68536923F001035361202385F83D3045
:1015600085F83E30002385F83C30032000E0002061
:10157000BDE8F88358B310B5044690F83D300BB37E
:10158000242384F83D302268D36823F40053D360C9
:101590002046FFF76FFF2268136923F4904313611D
:1015A0002268536923F02A0353612268D36843F405
:1015B0000053D36000202064202384F83D3084F859
:1015C0003E3010BD80F83C30FFF73EF8D8E70120F0
:1015D00070472DE9F04182B01E4690F83D30DBB2F5
:1015E000202B54D104460D469046002953D0002AA2
:1015F00053D090F83C30012B51D0012380F83C307F
:1016000000230364212380F83D30FFF711F90746DA
:10161000A4F82480A4F82680A368B3F5805F05D0E1
:101620004FF00008002384F83C3012E0236913B126
:101630004FF00008F6E7A8460025F3E738F8023B2C
:101640002268C3F308035360E28C92B2013A92B26B
:10165000E284E38C9BB273B100963B46002280216A
:101660002046FFF751FFE0B9002DE7D015F8012B18
:1016700023685A60E8E700963B4600224021204656
:10168000FFF742FF78B9202384F83D3000E00220C4
:1016900002B0BDE8F0810120FAE70120F8E702205E
:1016A000F6E70320F4E70320F2E7000008B503495A
:1016B000034800F049F8034B187008BD740300207C
:1016C0001000002078030020024B01221A701878C5
:1016D000704700BF0C000020024B01221A701878DE
:1016E000704700BF0C0000200020704700207047AA
:1016F00001207047134B5B7ADBB2012B01D901202B
:10170000704710B404460F4B93F809C05FFA8CFC85
:10171000002003F80C0093F809C003EB8C0CCCF804
:1017200004405C7A1C4422725A7A541CE4B25C7203
:1017300030320A703A234B702F238B70C87010BC64
:10174000704700BF7C03002008B50022FFF7D2FFDE
:1017500008BD00000C480D490D4A002302E0D45892
:10176000C4500433C4188C42F9D30A4A0A4C0023EB
:1017700001E013600432A242FBD3FFF713F800F03C
:101780000FF8FEF751FE704700000020880000208F
:101790003C220008880000209C030020FEE7000097
:1017A00070B500260C4D0D4C641BA410A64209D147
:1017B00000F0C4FC00260A4D0A4C641BA410A6428B
:1017C00005D170BD55F8043B98470136EEE755F852
:1017D000043B98470136F2E734220008342200081F
:1017E000342200083822000803460244934200D104
:1017F000704703F8011BF9E730B51446002C054685
:101800001A469BB005DA8B2303604FF0FF301BB004
:1018100030BD4FF40273ADF80C300CBF234604F119
:10182000FF33029305934FF6FF7300910491ADF8D7
:101830000E3069461E9B00F075F8431CBCBF8B231D
:101840002B60002CE3D00022009B1A70DFE7000021
:1018500007B5009313460A46014603480068FFF7A0
:10186000CBFF03B05DF804FB240000202DE9F04716
:101870008E6882469E420C4690461F4638D88A891A
:1018800012F4906F32D0256809690133A5EB010984
:1018900065694B4405EB450505EBD5756D109D421B
:1018A00038BF1D46530531D5294600F06FFB06466B
:1018B00050B90C234FF0FF30CAF80030A38943F031
:1018C0004003A381BDE8F0874A46216900F0CEFAC3
:1018D000A38923F4906343F08003A38126614E44DF
:1018E00026603E466561A5EB0905A560BE4200D9AC
:1018F0003E4632464146206800F0C6FAA368002002
:101900009B1BA360236833442360DBE72A4600F077
:10191000B1FB06460028E1D15046216900F0CEFA1D
:10192000C7E700002DE9F04F98468B8907461B0654
:101930000D4614469DB00ED50B6963B9402100F0E9
:1019400025FB2860286120B90C233B604FF0FF3055
:10195000D1E040236B610023099320238DF82930C7
:1019600030234FF00109CDF80C80DFF8A4818DF809
:101970002A3023469A4613F8012B0AB1252AF9D1B9
:10198000BAEB040B0BD05B46224629463846FFF7DC
:101990006DFF013000F0AA80099A5A4409929AF822
:1019A0000030002B00F0A28000234FF0FF32CDE981
:1019B00005230AF1010A049307938DF853301A9313
:1019C0005446052214F8011B514800F041FA049ACC
:1019D000D8B9D00644BF20238DF85330110744BF37
:1019E0002B238DF853309AF800302A2B15D054460B
:1019F00000204FF00A0C079A214611F8013B303BBA
:101A0000092B4ED9B0B1079214E0A0EB080309FAF4
:101A100003F31343A2460493D2E7039B191D1B68EB
:101A20000391002BBBBF5B4242F002020793079376
:101A3000B8BF049223782E2B0CD163782A2B35D192
:101A4000039B02341A1D1B680392002BB8BF4FF092
:101A5000FF330593DFF8BCA003225046217800F045
:101A6000F7F940B14023A0EB0A0003FA00F0049B11
:101A700001340343049314F8011B062226488DF811
:101A8000281000F0E5F9002838D0244B1BBB039B3D
:101A9000073323F0070308330393099B3344099367
:101AA00067E70C4601200CFB0232A5E700234FF04C
:101AB0000A0C194601340593204610F8012B303AE0
:101AC000092A03D9002BC5D00591C3E70446012399
:101AD0000CFB0121F0E703AB00932A463846104B7C
:101AE00004A9AFF30080421C0646D6D1AB895B0641
:101AF0003FF52CAF09981DB0BDE8F08F03AB009304
:101B00002A463846064B04A900F07CF8EBE700BFF4
:101B1000F9210008FF21000803220008000000004E
:101B20006D1800082DE9F047164699468A680B693A
:101B300007469342B8BF1346336091F843200C46E2
:101B4000DDF820800AB1013333602368990642BF73
:101B5000336802333360256815F0060506D104F1B9
:101B6000190AE36832689B1AAB4228DC94F84320D8
:101B7000131E226818BF012392062DD44946384609
:101B800004F14302C047013020D02368E56803F028
:101B90000603042B18BF002532684FF00006A36827
:101BA00008BFAD1A226908BF25EAE5759342C4BF94
:101BB0009B1AED181A34B5421AD1002008E001230F
:101BC000524649463846C047013003D14FF0FF30F6
:101BD000BDE8F0870135C4E73020E11881F8430003
:101BE0005A1C94F845102244023382F84310C5E78A
:101BF0000123224649463846C0470130E6D0013627
:101C0000D9E700002DE9FF470F7E9146782F8046E7
:101C10000C469A460C9D01F1430207D8622F0AD860
:101C2000002F00F0D980582F00F0A48004F1420565
:101C300084F842703AE0A7F16303152BF6D801A1AE
:101C400051F823F09D1C0008B11C00082D1C000851
:101C50002D1C00082D1C00082D1C0008B11C0008BC
:101C60002D1C00082D1C00082D1C00082D1C000830
:101C7000BF1D0008E11C0008A11D00082D1C000864
:101C80002D1C0008E11D00082D1C0008E11C0008A7
:101C90002D1C00082D1C0008A91D00082B681A1D0A
:101CA0001B682A6004F1420584F842300123A4E055
:101CB00020682968060601F104030AD50E682B6026
:101CC000002E03DA2D23764284F843300A235E483F
:101CD00019E00E6810F0400F2B6018BF36B2EFE726
:101CE0002B682068191D2960010601D51E6802E0D5
:101CF0004606FBD51E886F2F0CBF08230A235248C7
:101D0000002184F843106568002DA8BF2168A560F4
:101D1000A4BF21F0040121600EB9002D4DD015465D
:101D2000B6FBF3F103FB1167C75D05F8017D37468C
:101D3000BB420E46F4D9082B0BD12368DE0708D529
:101D4000236961689942DEBF302305F8013C05F143
:101D5000FF35521B22614B4621464046CDF800A07C
:101D600003AAFFF7DFFE01304CD14FF0FF3004B083
:101D7000BDE8F087344881F845702968236851F838
:101D8000046B29601D0614D5DF0744BF43F0200310
:101D900023601EB9236823F0200323601023AFE7DC
:101DA000236843F0200323607823284884F84530D3
:101DB000E3E7590648BFB6B2E6E71546BBE72B682E
:101DC0002668181D6169286035061B6801D51960F1
:101DD00002E07006FBD51980002315462361BAE79F
:101DE0002B6800211A1D2A601D686268284600F0D1
:101DF0002FF808B1401B606063682361002384F8FA
:101E00004330A8E72A46494640462369D047013077
:101E1000ABD023689B0713D4E068039B9842B8BFFC
:101E20001846A4E70123324649464046D0470130D0
:101E30009BD00135E36803995B1AAB42F2DCEBE718
:101E4000002504F11906F5E70A2200081B22000804
:101E5000034610B5C9B202449342184601D100208E
:101E600003E0047801338C42F6D110BD0A4491425C
:101E700000F1FF3300D1704710B511F8014B9142CA
:101E800003F8014FF9D110BD884210B501EB0204EF
:101E900002D98442234607D8431EA14208D011F834
:101EA000012B03F8012FF8E7014602448A4200D1D2
:101EB00010BD13F8014D02F8014DF7E738B505469E
:101EC000002940D051F8043C0C1F002BB8BFE41887
:101ED00000F010F91C4A136833B963601460284697
:101EE000BDE8384000F00CB9A34208D92068211899
:101EF0008B4201BF19685B6809182160EDE71A463B
:101F00005B680BB1A342FAD911685018A0420BD1FB
:101F100020680144501883421160E0D118685B6862
:101F2000014411605360DAE702D90C232B60D6E735
:101F3000206821188B4201BF19685B68091821606D
:101F400063605460CBE738BD8803002070B50E4E47
:101F50000C463168054611B900F0BCF830602146E6
:101F6000284600F0B7F8431C0AD0C41C24F0030430
:101F7000A04207D0211A284600F0ACF8013001D168
:101F80004FF0FF34204670BD8C0300202DE9F04156
:101F9000CD1C25F0030508350C2D38BF0C25002D70
:101FA000074601DBA94205D90C2300263B603046D9
:101FB000BDE8F0812E4E00F09DF833681C4634BB1E
:101FC00029463846FFF7C2FF431C04464DD134680A
:101FD0002646002E40D123683146384604EB0308DC
:101FE00000F078F880453AD1216803356D1A25F064
:101FF000030508350C2D38BF0C2538462946FFF758
:10200000A5FF01302BD023682B4423600EE022680B
:10201000521B1ED40B2A16D96119A342256018BF82
:102020005960636808BF316062514B60384604F103
:102030000B0600F065F826F00706231DF21AB6D04D
:102040009B1BA350B3E76268A3420CBF32605A6087
:10205000ECE723466468B2E734467668B9E70C23B8
:1020600038463B6000F04CF8A1E72560DEE700BF92
:10207000880300202DE9F041804614460E4621B920
:102080001146BDE8F041FFF781BF2AB9FFF716FFFF
:1020900025462846BDE8F08100F038F8844207461E
:1020A00002D8B4EB500F12D821464046FFF76EFF1E
:1020B00005460028EDD0BC422246314628BF3A46AC
:1020C000FFF7D4FE31464046FFF7F8FEE1E735461C
:1020D000DFE7000038B50023054D044608462B60B5
:1020E00000F01EF8431C02D12B6803B1236038BDF9
:1020F00090030020014800F011B800BF94030020B5
:10210000014800F00CB800BF9403002051F8043CD3
:10211000181F002BBCBF0B58C01870477047704782
:10212000044A05491368002B08BF0B461844106089
:102130001846704798030020A0030020F8B500BFA0
:10214000F8BC08BC9E467047F8B500BFF8BC08BC98
:042150009E467047F0
:10215400CDCCCC3DCDCC4C3E9A99993E7B22546952
:102164006D65223A2025642C22596177223A202574
:10217400662C225069746368223A2025662C225208
:102184006F6C6C223A2025662C226778223A20252F
:10219400642C226779223A2025642C22677A223A19
:1021A4002025642C2252504D223A2025642C22648E
:1021B40065707468223A20256C662C2262617474FE
:1021C400657279223A2025667D0D0A000000000020
:1021D40000000000010203040607080900000000D3
:1021E4000102030402030405060708090A0B0C0D87
:1021F4000E0F101000232D302B2000686C4C00654E
:10220400666745464700303132333435363738391E
:102214004142434445460030313233343536373851
:08222400396162636465660024
:08222C00F4FEFF7F0100000039
:042234004501000858
:042238002101000878
:10223C000024F40001000000100000000100000068
:10224C00C9160008D9160008E9160008ED16000892
:10225C00F11600082800002000000000000000001B
:10226C000000000000000000000000000000000062
:10227C000000000000000000000000000000000052
:10228C000000000000000000000000000000000042
:10229C000000000000000000000000000000000032
:1022AC000000000000000000000000000000000022
:0822BC0000000000000000001A
:040000050800175583
:00000001FF
