:020000040800F2
:1000000000500020B91A0008F1040008F3040008A9
:10001000F5040008F7040008F904000800000000D7
:10002000000000000000000000000000FB040008C9
:10003000FD04000800000000FF040008010500089E
:10004000011B0008011B0008011B0008011B000820
:10005000011B0008011B0008011B0008011B000810
:10006000011B0008011B0008011B0008011B000800
:10007000011B0008011B0008011B0008011B0008F0
:10008000011B0008011B0008011B0008011B0008E0
:10009000011B0008011B0008011B0008011B0008D0
:1000A000011B0008011B0008011B0008011B0008C0
:1000B000011B0008011B0008011B0008011B0008B0
:1000C000011B0008011B0008011B0008011B0008A0
:1000D000011B0008011B0008011B0008011B000890
:1000E000011B0008011B0008011B000800000000A4
:1000F0000000000000000000000000000000000000
:0C01000000000000000000005FF808F1A3
:10010C0010B5054C237833B9044B13B10448AFF345
:10011C0000800123237010BD0C00002000000000A3
:10012C005C1B000808B5034B1BB103490348AFF334
:10013C00008008BD00000000100000205C1B0008BF
:10014C000388C3F30B0303800023C381194615E016
:10015C004A0830F8122083EA122319E05B009BB2A4
:10016C00013AD2B242B113F4004FF7D05B0083F4E2
:10017C0040531BB29BB2F3E70131C9B20F2909D826
:10018C0011F0010FE4D04A0830F91220D2B25340DA
:10019C000822E7E7180B704700B585B08DF80F0003
:1001AC006423009301230DF10F02EC210448006835
:1001BC0000F072FE10B905B05DF804FBFF20FAE701
:1001CC002800002030B585B00C4615468DF80F0080
:1001DC006423009301230DF10F02EC210D480068FC
:1001EC0000F05AFE90B9142000F0D4F96423009367
:1001FC002B462246EC210748006800F009FF10B995
:10020C00002005B030BD4FF0FF30FAE74FF0FF3063
:10021C00F7E700BF2800002008B51E20FFF7BCFF41
:10022C0020B9142000F0B6F9002008BD4FF0FF30C3
:10023C00FBE7000030B583B00546194B4360002343
:10024C00037001E0FFF7E8FFFFF7E6FF0028F9D1A4
:10025C00142000F09FF91EE004F15000400002222F
:10026C0001A900F0FE00FFF7ADFF9DF805309DF8E9
:10027C00042043EA022304F10C0225F81230013465
:10028C00E4B2062CE8D9284630F8184F240BFFF7B7
:10029C0057FF844201D00024F3E7002003B030BDA7
:1002AC0000A0804482B00A4B9A6942F004029A6121
:1002BC009A6902F004020092009A9A6942F00802CC
:1002CC009A619B6903F008030193019B02B070478C
:1002DC000010024072B6FEE708B50A480A4B0360EC
:1002EC000A4B436000238360C3604FF48042026179
:1002FC0043618361C361036200F0F0FC00B908BD87
:10030C00FFF7E8FF3000002000540040A0860100F9
:10031C0008B50A480A4B03604FF4E13343600023ED
:10032C008360C36003610C2242618361C36101F08D
:10033C008DFB00B908BDFFF7CDFF00BF8400002086
:10034C000044004000B591B02822002106A801F01D
:10035C00F7FB002301930293039304930593022369
:10036C00069301220A9210220B920D934FF4601304
:10037C000F9306A801F004F878B90F23019302211A
:10038C0002918023039300230493059301A801F0A9
:10039C0037FA20B911B05DF804FBFFF79BFFFFF7AC
:1003AC0099FF000008B500F0D1F8FFF7CBFFFFF77D
:1003BC0079FFFFF791FFFFF7ABFF024B1868FFF7D0
:1003CC0039FFFEE72C00002082B00E4B9A6942F0F8
:1003DC0001029A619A6902F001020092009ADA69AC
:1003EC0042F08052DA61DB6903F080530193019B88
:1003FC00054A536823F0E06343F00073536002B086
:10040C00704700BF001002400000014010B586B0DC
:10041C00002302930393049305930268114B9A42B1
:10042C0001D006B010BD104CA36943F00803A361C2
:10043C00A36903F008030093009BC02302931223CB
:10044C0003930323059302A9084800F015F9E36907
:10045C0043F40013E361E36903F400130193019B7C
:10046C00DFE700BF0054004000100240000C0140C8
:10047C0010B586B00023029303930493059302688E
:10048C00164B9A4201D006B010BD03F5E633DA697B
:10049C0042F40032DA61DA6902F400320092009A16
:1004AC009A6942F004029A619B6903F00403019378
:1004BC00019B042302930223039303230593084C0B
:1004CC0002A9204600F0D8F80823029300230393D6
:1004DC00049302A9204600F0CFF8D4E70044004072
:1004EC0000080140FEE7FEE7FEE7FEE7FEE7704787
:1004FC007047704708B500F03BF808BD7047000026
:10050C0010B504460E4B18784FF47A73B3FBF0F326
:10051C000C4A1068B0FBF3F000F09AF868B90F2C95
:10052C0001D901200AE0002221464FF0FF3000F0F3
:10053C0057F8054B1C60002000E0012010BD00BFE7
:10054C0004000020000000200800002008B5074A25
:10055C00136843F010031360032000F02FF80F20F2
:10056C00FFF7CEFFFFF730FF002008BD0020024050
:10057C00034A1168034B1B780B441360704700BF90
:10058C00C800002004000020014B1868704700BF11
:10059C00C800002038B50446FFF7F6FF0546B4F155
:1005AC00FF3F02D0044B1B781C44FFF7EDFF401BB0
:1005BC00A042FAD338BD00BF04000020074AD3681C
:1005CC0023F4E0631B041B0C000200F4E060034303
:1005DC0043F0BF6343F40033D360704700ED00E099
:1005EC0000B5194BDB68C3F30223C3F1070CBCF154
:1005FC00040F28BF4FF0040C03F1040EBEF1060FDC
:10060C0018D9033B4FF0FF3E0EFA0CFC21EA0C010B
:10061C0099400EFA03F322EA0303194300280BDB7B
:10062C000901C9B200F1604000F5614080F8001387
:10063C005DF804FB0023E5E700F00F000901C9B2E7
:10064C00024B1954F4E700BF00ED00E014ED00E09C
:10065C000138B0F1807F0BD24FF0E0235861054A8E
:10066C00F02182F823100020986107221A6170474C
:10067C000120704700ED00E070B582B00024A44664
:10068C00A6E0804DAA4210D007D97F4DAA420CD0CB
:10069C0005F58035AA4208D013E0A5F58015AA42CD
:1006AC0003D005F57025AA4207D18A68002A58D0D4
:1006BC00012A51D04361082403E0A5F58015AA4214
:1006CC00F3D0BEF1FF0F4ED80646BEF1FF0F4CD84B
:1006DC004FEA8C0233680F25954023EA050304FA90
:1006EC0002F2134333604B6813F0805F6ED0674B9C
:1006FC009A6942F001029A619B6903F0010301932C
:10070C00019B4FEA9C02951C614B53F825600CF041
:10071C0003039D000F23AB4026EA03065D4B984272
:10072C0029D003F58063984200F08E8003F5806336
:10073C00984200F08B8003F58063984219D0042313
:10074C001AE0CC68BDE7CC680434BAE7CC6808344E
:10075C00B7E7CC680C34B4E703610824B1E7002494
:10076C00AFE70424ADE7061DAFE7ACF10802920039
:10077C00B0E7032300E00023AB4033430232444D87
:10078C0045F822304B6813F4803F61D0424A13681D
:10079C0043EA0E0313604B6813F4003F5ED03E4AED
:1007AC00536843EA0E0353604B6813F4801F5BD00D
:1007BC00394A936843EA0E0393604B6813F4001FA5
:1007CC0058D0354AD36843EA0E03D3600CF1010CC0
:1007DC000A6832FA0CF353D0012303FA0CF302EA41
:1007EC00030E33EA0202F1D14A68122A3FF649AFEE
:1007FC00122A3FF666AF01A555F822F0B70600089D
:10080C004F070008590700086B070008CF060008BF
:10081C00CF060008CF060008CF060008CF06000858
:10082C00CF060008CF060008CF060008CF06000848
:10083C00CF060008CF060008CF060008CF06000838
:10084C00530700085F070008012395E7022393E78D
:10085C00114A136823EA0E0313609CE70E4A53688F
:10086C0023EA0E0353609FE70B4A936823EA0E03B7
:10087C009360A2E7084AD36823EA0E03D360A5E786
:10088C0002B070BD000022100000311000100240B8
:10089C0000000140000801400004014003685A694F
:1008AC0012F4806F01D1002070476FF480625A619E
:1008BC0000230363202280F83D2080F83E30026C38
:1008CC0042F00402026480F83C30012070472DE9AC
:1008DC00F04107460D4690461E4624E0FFF754FEB5
:1008EC00069BC01AB04200D8EEB900233B6320220D
:1008FC0087F83D2087F83E303A6C42F020023A648B
:10090C0087F83C3001201EE03B689C6925EA040C0A
:10091C001FFA8CFCBCFA8CFC4FEA5C1CE04511D134
:10092C00B6F1FF3FDAD1C5F30743012BECD13B689D
:10093C005B6925EA030C1FFA8CFCBCFA8CFC4FEAB1
:10094C005C1CEBE70020BDE8F0812DE9F041054689
:10095C000E46174698463DE01A6842F400721A603B
:10096C002B686FF480625A6100232B63202285F878
:10097C003D2085F83E302A6C42F004022A6485F84A
:10098C003C30012034E0FFF7FFFDA0EB0800B8423B
:10099C0000D8FFB900232B63202285F83D2085F871
:1009AC003E302A6C42F020022A6485F83C3001204B
:1009BC001EE02B689C6926EA0404A4B2003C18BF14
:1009CC000124A4B12B685A6912F4806FC4D1B7F119
:1009DC00FF3FD8D1C6F30743012BEAD12B685C69E2
:1009EC0026EA0404A4B2003C18BF0124E9E7002065
:1009FC00BDE8F081F0B583B004460D4616461F469F
:100A0C00C36A082B0DD0012B0BD013F5803F08D0F7
:100A1C00036B122B0AD10268136843F480731360C2
:100A2C0004E02268136843F4807313600097334624
:100A3C0000224FF001112046FFF749FF80B92369CE
:100A4C00B3F5804F16D1236805F0FE051D613B46BA
:100A5C00324613492046FFF778FFF8B903B0F0BDD2
:100A6C0023681B6813F4807F02D04FF40073236457
:100A7C000320F3E7EB11226803F0060343F0F003C5
:100A8C0013613B46324607492046FFF75EFF18B913
:100A9C002368EDB21D61DAE70120DFE70120DDE715
:100AAC0002000100080001002DE9F04184B0044669
:100ABC000D4616461F46C26A01680B6843F48063F4
:100ACC000B60082A0DD0012A0BD012F5803F08D0FC
:100ADC00036B112B0AD10268136843F48073136003
:100AEC0004E02268136843F4807313600097334664
:100AFC0000224FF001112046FFF7E9FE98B9236957
:100B0C00B3F5804F19D1236845F00105EDB21D6195
:100B1C003B4632462A492046FFF717FF00284CD1A6
:100B2C0004B0BDE8F08123681B6813F4807F02D009
:100B3C004FF4007323640320F2E74FEAE51808F042
:100B4C000608236848F0F0021A613B4632461D49FC
:100B5C002046FFF7FAFE08B10120E1E72368EDB269
:100B6C001D613B46324616492046FFF7EEFE08B1A2
:100B7C000120D5E7002203922368596903919969F2
:100B8C0003910399196841F48071196000973346F9
:100B9C004FF001112046FFF79AFE20B9226848F069
:100BAC00F1031361B4E723681B6813F4807F02D050
:100BBC004FF4007323640320B2E70120B0E700BFB9
:100BCC00020001000800010070B504460D461646EF
:100BDC0023685B6913F0800F1CD12046FFF75EFE83
:100BEC00D0B9B5F1FF3FF3D0FFF7CEFC801BA84284
:100BFC0001D8002DECD100232363202284F83D2062
:100C0C0084F83E30226C42F02002226484F83C309E
:100C1C00012000E0002070BD0120FCE770B5044607
:100C2C000D46164623685B6913F0040F1CD1204651
:100C3C00FFF734FED0B9B5F1FF3FF3D0FFF7A4FCBA
:100C4C00801BA84201D8002DECD100232363202265
:100C5C0084F83D2084F83E30226C42F0200222645D
:100C6C0084F83C30012000E0002070BD0120FCE73E
:100C7C0070B505460C4616462B68596911F0400FA5
:100C8C0029D1596911F0100F15D1FFF77DFC801B8C
:100C9C00A04201D8002CEFD100232B63202285F831
:100CAC003D2085F83E302A6C42F020022A6485F8FB
:100CBC003C30012070BD6FF010025A6100232B6391
:100CCC00202285F83D2085F83E302A6C2A6485F870
:100CDC003C300120EEE70020ECE70000002800F09B
:100CEC00CC8070B5044690F83D30002B77D024238F
:100CFC0084F83D302268136823F0010313602268E6
:100D0C00136843F4004313602268136823F4004310
:100D1C00136000F031FE62685A4B9A4264D85A4B09
:100D2C0098428CBF00230123002B40F0A880574928
:100D3C00A1FB00318B0C25686A6822F03F0242EA65
:100D4C0091426A6021680A6A22F03F0266684D4D42
:100D5C00AE424FD8013313430B622168CA6922F4A7
:100D6C004F4222F0FF026668464B9E424CD8431E0F
:100D7C007600B3FBF6F3013340F6FC70034278D0F7
:100D8C00C3F30B031343CB6121680B6823F0C0033F
:100D9C00E269206A024313430B6021688B6823F4D9
:100DAC00034323F0FF032269E068024313438B6083
:100DBC002168CB6823F0FF036269A06902431343E7
:100DCC00CB602268136843F0010313600020206499
:100DDC00202384F83D30206384F83E0070BD80F8F9
:100DEC003C30FFF713FB82E7294B98428CBF002362
:100DFC00012399E74FF4967505FB03F3254DA5FBED
:100E0C0003539B090133A6E7A368BBB9451E06EB48
:100E1C00460CB5FBFCF50135C5F30B05B5FA85F5AC
:100E2C006D0945BBC3B9013806EB4603B0FBF3F3C0
:100E3C000133C3F30B0343F40043A3E7451E06EB56
:100E4C00860C0CEB8C0CB5FBFCF50135C5F30B05D6
:100E5C00B5FA85F56D09E4E7013806EB860303EB7B
:100E6C008303B0FBF3F30133C3F30B0343F44043AD
:100E7C0088E7042386E7012384E7012070470120DB
:100E8C00ACE700BFA08601007F841E0083DE1B43FD
:100E9C00FF083D00D34D62102DE9F04385B00446A8
:100EAC000F46914698460C9EFFF76EFB054694F84C
:100EBC003D00C0B2202804D00227384605B0BDE85A
:100ECC00F0830095192301224F492046FFF7FFFCC0
:100EDC00002840F0928094F83C30012B00F08F8079
:100EEC00012384F83C3023681A6812F0010F03D1F7
:100EFC001A6842F001021A602268136823F4006336
:100F0C001360212384F83D30102384F83E300023F5
:100F1C002364C4F82490A4F82A80638D23853B4B6A
:100F2C00E3622B46324639462046FFF763FD0746FF
:100F3C00002866D10023039323685A6903929B69A6
:100F4C000393039B11E0236C042B01D00127B4E71E
:100F5C002268136843F400731360F7E72A4631469E
:100F6C002046FFF75BFE00282ED1238D002B36D0B8
:100F7C002A4631462046FFF727FE0028E3D1626A55
:100F8C00236812781A61606A431C6362618D89B2AE
:100F9C00013989B26185238D013B9BB2238522687F
:100FAC00516911F0040FD9D0002BD7D043781361BD
:100FBC00636A01336362638D9BB2013B9BB26385B1
:100FCC00238D013B2385C9E7236C042B01D001271A
:100FDC0073E72268136843F400731360F7E7226821
:100FEC00136843F400731360202384F83D3000230E
:100FFC0084F83E3084F83C305FE702275DE7022737
:10100C005BE7012759E700BF020010000000FFFF5B
:10101C002DE9F04389B004460F4691469846109E40
:10102C0000230793FFF7B0FA054694F83D00C0B2D1
:10103C00202804D00227384609B0BDE8F08300957B
:10104C001923012280492046FFF741FC002840F07B
:10105C00708194F83C30012B00F06D81012384F8F1
:10106C003C3023681A6812F0010F03D11A6842F061
:10107C0001021A602268136823F4006313602223B0
:10108C0084F83D30102384F83E3000232364C4F8E8
:10109C002490A4F82A80638D23856C4BE3622B4645
:1010AC00324639462046FFF7FFFC0746002840F041
:1010BC004481238D5BB9039323685A6903929A691F
:1010CC000392039A1A6842F400721A60EEE0012B44
:1010DC000FD0022B21D02268136843F48063136075
:1010EC000023069323685A6906929B690693069B14
:1010FC00DCE02268136823F48063136072B600236B
:10110C00049323685A6904929A690492049A1A689F
:10111C0042F400721A6062B6C8E02268136843F4A5
:10112C000063136072B60023059323685A69059215
:10113C009A690592059A1A6822F480621A6062B65E
:10114C00B4E02A4631462046FFF792FD002840F0D5
:10115C00F68023681A69636A1A70636A01336362E2
:10116C00238D013B2385638D9BB2013B9BB2638531
:10117C009CE000953346002235492046FFF7A7FB3B
:10118C00002840F0E0802268136823F48063136029
:10119C0072B623681A69636A1A70636A01336362F0
:1011AC00238D013B2385638D9BB2013B9BB26385F1
:1011BC00284B1B68DB08284AA2FB03231B0A03EB02
:1011CC008303C3EBC303079307990139079107996D
:1011DC00002928D023685A6912F0040FF4D01A6839
:1011EC0042F400721A6023681A69636A1A70636A9F
:1011FC0001336362238D013B2385638D9BB2013BDD
:10120C009BB2638562B623681A69636A1A70636A53
:10121C0001336362238D013B2385638D9BB2013BBC
:10122C009BB2638542E000232363202284F83D2097
:10123C0084F83E30226C42F02002226462B684F8BC
:10124C003C300127F7E600BF020010000000FFFF52
:10125C00040001000000002089B5F8142A4631462C
:10126C002046FFF705FD00286FD123681A69636AD1
:10127C001A70626A531C6362238D013B2385638D54
:10128C009BB2013B9BB263852368596911F0040F33
:10129C000CD01B695370636A01336362238D013B6D
:1012AC002385638D9BB2013B9BB26385218D002905
:1012BC0036D00329D2D801293FF443AF02297FF459
:1012CC0058AF00953346002221492046FFF7FFFA1C
:1012DC00002836D172B62268136843F40073136089
:1012EC0023681A69636A1A70636A01336362238D17
:1012FC00013B2385638D9BB2013B9BB2638562B638
:10130C0023681A69636A1A70636A01336362238DF6
:10131C00013B2385638D9BB2013B9BB26385C5E783
:10132C00202384F83D30002384F83E3084F83C3090
:10133C0081E602277FE602277DE601277BE601276F
:10134C0079E6012777E6012775E6012773E600BFEA
:10135C000400010082B0084B1B68084AA2FB03235F
:10136C005B0A00FB03F3019300BF019B5A1E019221
:10137C00002BF9D102B0704700000020D34D621051
:10138C00002800F0F18170B582B00446036813F0B8
:10139C00010F2CD0994B5B6803F00C03042B1DD070
:1013AC00964B5B6803F00C03082B12D06368B3F503
:1013BC00803F41D0002B55D103F1804303F504331A
:1013CC001A6822F480321A601A6822F480221A6099
:1013DC0037E08A4B5B6813F4803FE7D0874B1B6880
:1013EC0013F4003F03D06368002B00F0BF81236827
:1013FC0013F0020F75D0814B5B6813F00C0F5FD0AC
:10140C007E4B5B6803F00C03082B54D02369002B34
:10141C0000F08A807A4B01221A60FFF7B5F8054676
:10142C00764B1B6813F0020F75D1FFF7ADF8401B1C
:10143C000228F5D903209EE1704A136843F48033E7
:10144C001360636843B3FFF79FF805466B4B1B684B
:10145C0013F4003FCBD1FFF797F8401B6428F5D964
:10146C00032088E1B3F5A02F09D0644B1A6822F44D
:10147C0080321A601A6822F480221A60E1E703F1C4
:10148C008043A3F53C331A6842F480221A601A6830
:10149C0042F480321A60D4E7FFF776F80546574BD2
:1014AC001B6813F4003FA2D0FFF76EF8401B6428B2
:1014BC00F5D903205FE1514B5B6813F4803FA5D154
:1014CC004E4B1B6813F0020F03D02369012B40F025
:1014DC004F814A4A136823F0F803616943EAC10358
:1014EC001360236813F0080F33D0A369002B5CD072
:1014FC00434B0122C3F88024FFF746F805463F4BC7
:10150C005B6A13F0020F21D1FFF73EF8401B022853
:10151C00F5D903202FE1394A136823F0F8036169E8
:10152C0043EAC1031360DCE7354B00221A60FFF776
:10153C002BF80546314B1B6813F0020FD1D0FFF787
:10154C0023F8401B0228F5D9032014E10120FFF7F2
:10155C0001FF236813F0040F00F09680274BDB6922
:10156C0013F0805F34D1254BDA6942F08052DA6196
:10157C00DB6903F080530193019B0125214B1B6810
:10158C0013F4807F26D0E368012B3DD0002B53D180
:10159C0003F1804303F504331A6A22F001021A6244
:1015AC001A6A22F004021A6233E0154B0022C3F8C7
:1015BC008024FEF7E9FF0546104B5B6A13F0020F1F
:1015CC00C7D0FEF7E1FF401B0228F5D90320D2E07B
:1015DC000025D3E70B4A136843F480731360FEF7BE
:1015EC00D3FF0646074B1B6813F4807FCBD1FEF765
:1015FC00CBFF801B6428F5D90320BCE0001002400F
:10160C0000004242007000405F4A136A43F001033D
:10161C001362E36833B3FEF7B7FF06465A4B1B6AF7
:10162C0013F0020F2FD1FEF7AFFF801B41F288336E
:10163C009842F3D903209EE0052B09D0524B1A6A2D
:10164C0022F001021A621A6A22F004021A62E0E71E
:10165C004D4B1A6A42F004021A621A6A42F00102F5
:10166C001A62D6E7FEF790FF0646474B1B6A13F04B
:10167C00020F08D0FEF788FF801B41F28833984296
:10168C00F3D9032077E0E5B9E369002B72D03E4A29
:10169C00526802F00C02082A56D0022B17D03B4B92
:1016AC0000221A66FEF770FF0446374B1B6813F0D6
:1016BC00007F47D0FEF768FF001B0228F5D90320F6
:1016CC0059E0314AD36923F08053D361DCE72F4BC7
:1016DC0000221A66FEF758FF05462B4B1B6813F0C9
:1016EC00007F06D0FEF750FF401B0228F5D90320DF
:1016FC0041E0236AB3F5803F1AD023494B6823F4A9
:10170C007413226A606A024313434B601F4B01221D
:10171C001A66FEF739FF04461B4B1B6813F0007F5B
:10172C000ED1FEF731FF001B0228F5D9032022E071
:10173C00154A536823F40033A1680B435360DCE76C
:10174C00002018E0002016E0012B16D00E4B5B6831
:10175C0003F48031226A914211D103F47013626A4E
:10176C0093420ED1002006E001207047012002E0D8
:10177C00012000E0002002B070BD0120FBE7012039
:10178C00F9E70120F7E700BF0010024000004242D9
:10179C0086B0174B0FCB0DF1180C0CE90F0040F273
:1017AC000123ADF80430134B5B6803F00C02082ADC
:1017BC0002D0114806B07047C3F3834218326A4412
:1017CC0012F8100C13F4803F0DD00A4B5B68C3F376
:1017DC00404318336B4413F8143C074A02FB00F0E7
:1017EC00B0FBF3F0E6E7054B03FB00F0E2E700BFCC
:1017FC008C1B00080010024000127A0000093D000A
:10180C00002800F0A08070B50D460446524B1B68B2
:10181C0003F007038B420BD24F4A136823F00703E4
:10182C000B431360136803F007038B4240F08D8069
:10183C00236813F0020F17D013F0040F04D0474A9B
:10184C00536843F4E0635360236813F0080F04D02B
:10185C00424A536843F460535360404A536823F040
:10186C00F003A1680B435360236813F0010F31D0D0
:10187C006368012B20D0022B25D0384A126812F055
:10188C00020F64D035494A6822F0030213434B60BF
:10189C00FEF77AFE0646314B5B6803F00C03626878
:1018AC00B3EB820F16D0FEF76FFE801B41F288332C
:1018BC009842F0D9032045E0284A126812F4003F00
:1018CC00E0D101203EE0254A126812F0007FD9D108
:1018DC00012037E0204B1B6803F00703AB420AD909
:1018EC001D4A136823F007032B431360136803F09E
:1018FC000703AB422DD1236813F0040F06D0174A0F
:10190C00536823F4E063E1680B435360236813F0DE
:10191C00080F07D0114A536823F46053216943EA36
:10192C00C1035360FFF734FF0C4B5B68C3F3031325
:10193C000B4AD35CD8400B4B18600B4B1868FEF766
:10194C00DFFD002070BD012070470120FAE7012067
:10195C00F8E70120F6E700BF00200240001002402B
:10196C00741B00080000002008000020014B1868C0
:10197C00704700BF0000002008B5FFF7F7FF044BCD
:10198C005B68C3F30223034AD35CD84008BD00BF95
:10199C0000100240841B000808B5FFF7E7FF044B5A
:1019AC005B68C3F3C223034AD35CD84008BD00BFB5
:1019BC0000100240841B000810B50446026813692D
:1019CC0023F44053C1680B431361836802691343CA
:1019DC0042691A430168CB6823F4B05323F00C031B
:1019EC001343CB600268536923F4407381690B4342
:1019FC0053610268134B9A4220D0FFF7BDFF024699
:101A0C0002EB820202EB820263689B00B2FBF3F2F0
:101A1C000D48A0FB02314909642303FB11231B0170
:101A2C003233A0FB03235B0903F0F00202EB01123B
:101A3C0003F00F03216813448B6010BDFFF7ACFF5C
:101A4C000246DDE7003801401F85EB5158B310B555
:101A5C00044690F83D300BB3242384F83D302268C3
:101A6C00D36823F40053D3602046FFF7A5FF226808
:101A7C00136923F4904313612268536923F02A03FA
:101A8C0053612268D36843F40053D3600020206470
:101A9C00202384F83D3084F83E3010BD80F83C3073
:101AAC00FEF7E6FCD8E70120704700000C480D4912
:101ABC000D4A002302E0D458C4500433C4188C429D
:101ACC00F9D30A4A0A4C002301E013600432A24203
:101ADC00FBD3FEF713FD00F00FF8FEF763FC704725
:101AEC00000000200C000020A81B00080C000020A7
:101AFC00CC000020FEE7000070B500260C4D0D4C0C
:101B0C00641BA410A64209D100F022F800260A4D4D
:101B1C000A4C641BA410A64205D170BD55F8043BB9
:101B2C0098470136EEE755F8043B98470136F2E743
:101B3C00A01B0008A01B0008A01B0008A41B000889
:101B4C0003460244934200D1704703F8011BF9E7A6
:101B5C00F8B500BFF8BC08BC9E467047F8B500BF8E
:081B6C00F8BC08BC9E4670475E
:101B74000000000000000000010203040607080939
:101B8400000000000102030402030405060708091B
:0C1B94000A0B0C0D0E0F101000000000DA
:041BA0003101000807
:041BA4000D01000827
:0C1BA8000024F400010000001000000008
:0400000508001AB91C
:00000001FF
