:020000040800F2
:10000000005000208111000841040008430400084A
:1000100045040008470400084904000800000000E7
:100020000000000000000000000000004B04000879
:100030004D040008000000004F04000851040008AF
:10004000C9110008C9110008C9110008C911000828
:10005000C9110008C9110008C9110008C911000818
:10006000C9110008C9110008C9110008C911000808
:10007000C9110008C9110008C9110008C9110008F8
:10008000C9110008C9110008C9110008C9110008E8
:10009000C9110008C9110008C9110008C9110008D8
:1000A000C9110008C9110008C9110008C9110008C8
:1000B000C9110008C9110008C9110008C9110008B8
:1000C000C9110008C9110008C9110008C9110008A8
:1000D000C9110008C9110008C9110008C911000898
:1000E00059040008C9110008C911000800000000E7
:1000F0000000000000000000000000000000000000
:0C01000000000000000000005FF808F1A3
:10010C0010B5054C237833B9044B13B10448AFF345
:10011C0000800123237010BD0C00002000000000A3
:10012C002412000808B5034B1BB103490348AFF375
:10013C00008008BD00000000100000202412000800
:10014C0030B589B000240494059406940794294B87
:10015C009A6942F010029A619A6902F010020092B8
:10016C00009A9A6942F020029A619A6902F0200280
:10017C000192019A9A6942F004029A619A6902F01A
:10018C0004020292029A9A6942F008029A619B69EF
:10019C0003F008030393039B174D22466021284666
:1001AC0000F03FFB4FF400530493144B059306945B
:1001BC0004A9134800F01CFA60230493012305934F
:1001CC0006940223079304A9284600F011FA802311
:1001DC0004930594069404A9284600F009FA2246D3
:1001EC002146282000F0AAF9282000F0DFF909B0F8
:1001FC0030BD00BF0010024000080140000011108B
:10020C000010014072B6FEE708B50A480A4B0360BD
:10021C000A4B436000238360C3604FF48042026149
:10022C0043618361C361036200F01AFB00B908BD2E
:10023C00FFF7E8FF2800002000540040A0860100D2
:10024C0008B50A480A4B03604FF4E13343600023BE
:10025C008360C36003610C2242618361C36100F05F
:10026C0059FF00B908BDFFF7CDFF00BF7C0000208F
:10027C000044004000B591B02822002106A800F0EF
:10028C00C3FF00230193029303930493059302236A
:10029C00069301220A9210220B920D934FF46013D5
:1002AC000F9306A800F0D0FB80B90F230193022115
:1002BC000291002303934FF480620492059301A8EA
:1002CC0000F002FE20B911B05DF804FBFFF79AFFB5
:1002DC00FFF798FF08B500F0E7F80022202112483C
:1002EC0000F09FFAFFF7C6FFFFF72AFFFFF78CFF1E
:1002FC00FFF7A6FF80210C4800F08CFA0028F9D1FA
:10030C008021094800F086FA0028F9D0322000F04C
:10031C00EFF88021044800F07DFA0028EAD0202173
:10032C00014800F084FAE5E70008014082B00E4B6A
:10033C009A6942F001029A619A6902F001020092F4
:10034C00009ADA6942F08052DA61DB6903F080537B
:10035C000193019B054A536823F0E06343F000735B
:10036C00536002B0704700BF001002400000014013
:10037C0010B586B00023029303930493059302688F
:10038C00114B9A4201D006B010BD104CA36943F03A
:10039C000803A361A36903F008030093009BC02327
:1003AC000293122303930323059302A9084800F038
:1003BC001FF9E36943F40013E361E36903F40013E9
:1003CC000193019BDFE700BF005400400010024086
:1003DC00000C014000B587B00023029303930493F3
:1003EC0005930268114B9A4202D007B05DF804FBEA
:1003FC0003F5E633DA6942F40032DA61DA6902F4C1
:10040C0000320092009A9A6942F004029A619B6948
:10041C0003F004030193019B0C2302930223039327
:10042C00059302A9024800F0E3F8DEE7004400401F
:10043C0000080140FEE7FEE7FEE7FEE7FEE7704737
:10044C007047704708B500F041F808BD08B54FF487
:10045C00005000F0F7F908BD7047000010B50446D5
:10046C000E4B18784FF47A73B3FBF0F30C4A106808
:10047C00B0FBF3F000F0A8F868B90F2C01D90120FB
:10048C000AE0002221464FF0FF3000F057F8054BF0
:10049C001C60002000E0012010BD00BF0400002003
:1004AC00000000200800002008B5074A136843F03C
:1004BC0010031360032000F02FF80020FFF7CEFF8D
:1004CC00FFF734FF002008BD00200240034A1168EA
:1004DC00034B1B780B441360704700BFC000002017
:1004EC0004000020014B1868704700BFC0000020BA
:1004FC0038B50446FFF7F6FF0546B4F1FF3F02D0CE
:10050C00044B1B781C44FFF7EDFF401BA042FAD3B1
:10051C0038BD00BF04000020074AD36823F4E06311
:10052C001B041B0C000200F4E060034343F0BF63A8
:10053C0043F40033D360704700ED00E000B5194B75
:10054C00DB68C3F30223C3F1070CBCF1040F28BF13
:10055C004FF0040C03F1040EBEF1060F18D9033B47
:10056C004FF0FF3E0EFA0CFC21EA0C0199400EFAFA
:10057C0003F322EA0303194300280BDB0901C9B278
:10058C0000F1604000F5614080F800135DF804FB59
:10059C000023E5E700F00F000901C9B2024B195422
:1005AC00F4E700BF00ED00E014ED00E0002807DBED
:1005BC0000F01F02400901239340024A42F8203008
:1005CC00704700BF00E100E00138B0F1807F0BD232
:1005DC004FF0E0235861054AF02182F823100020E7
:1005EC00986107221A6170470120704700ED00E006
:1005FC0070B582B00024A446A6E0804DAA4210D06B
:10060C0007D97F4DAA420CD005F58035AA4208D0F7
:10061C0013E0A5F58015AA4203D005F57025AA4272
:10062C0007D18A68002A58D0012A51D04361082486
:10063C0003E0A5F58015AA42F3D0BEF1FF0F4ED80A
:10064C000646BEF1FF0F4CD84FEA8C0233680F25DB
:10065C00954023EA050304FA02F2134333604B6816
:10066C0013F0805F6ED0674B9A6942F001029A6179
:10067C009B6903F001030193019B4FEA9C02951CBB
:10068C00614B53F825600CF003039D000F23AB4026
:10069C0026EA03065D4B984229D003F58063984205
:1006AC0000F08E8003F58063984200F08B8003F598
:1006BC008063984219D004231AE0CC68BDE7CC685B
:1006CC000434BAE7CC680834B7E7CC680C34B4E728
:1006DC0003610824B1E70024AFE70424ADE7061D4D
:1006EC00AFE7ACF108029200B0E7032300E000236F
:1006FC00AB4033430232444D45F822304B6813F47F
:10070C00803F61D0424A136843EA0E0313604B6882
:10071C0013F4003F5ED03E4A536843EA0E03536025
:10072C004B6813F4801F5BD0394A936843EA0E037D
:10073C0093604B6813F4001F58D0354AD36843EAD2
:10074C000E03D3600CF1010C0A6832FA0CF353D08F
:10075C00012303FA0CF302EA030E33EA0202F1D18D
:10076C004A68122A3FF649AF122A3FF666AF01A536
:10077C0055F822F02F060008C7060008D10600081D
:10078C00E30600084706000847060008470600086D
:10079C0047060008470600084706000847060008F9
:1007AC0047060008470600084706000847060008E9
:1007BC004706000847060008CB060008D7060008C5
:1007CC00012395E7022393E7114A136823EA0E03EA
:1007DC0013609CE70E4A536823EA0E0353609FE7AD
:1007EC000B4A936823EA0E039360A2E7084AD36886
:1007FC0023EA0E03D360A5E702B070BD00002210FF
:10080C0000003110001002400000014000080140BF
:10081C00000401408368194201D001207047002078
:10082C0070470AB101617047090401617047C368E0
:10083C0001EA030221EA030141EA02410161704726
:10084C007047000008B5054B5B69034200D108BD39
:10085C00024B5861FFF7F4FFF9E700BF00040140B9
:10086C00002800F0CC8070B5044690F83D30002B89
:10087C0077D0242384F83D302268136823F00103D9
:10088C0013602268136843F40043136022681368F2
:10089C0023F40043136000F0D3FB62685A4B9A4276
:1008AC0064D85A4B98428CBF00230123002B40F094
:1008BC00A8805749A1FB00318B0C25686A6822F08F
:1008CC003F0242EA91426A6021680A6A22F03F02C2
:1008DC0066684D4DAE424FD8013313430B6221680D
:1008EC00CA6922F44F4222F0FF026668464B9E42D0
:1008FC004CD8431E7600B3FBF6F3013340F6FC7084
:10090C00034278D0C3F30B031343CB6121680B680C
:10091C0023F0C003E269206A024313430B60216891
:10092C008B6823F4034323F0FF032269E06802433E
:10093C0013438B602168CB6823F0FF036269A069C5
:10094C0002431343CB602268136843F00103136026
:10095C0000202064202384F83D30206384F83E007E
:10096C0070BD80F83C30FFF703FD82E7294B9842BD
:10097C008CBF0023012399E74FF4967505FB03F315
:10098C00254DA5FB03539B090133A6E7A368BBB90F
:10099C00451E06EB460CB5FBFCF50135C5F30B0506
:1009AC00B5FA85F56D0945BBC3B9013806EB4603AD
:1009BC00B0FBF3F30133C3F30B0343F40043A3E79E
:1009CC00451E06EB860C0CEB8C0CB5FBFCF50135CF
:1009DC00C5F30B05B5FA85F56D09E4E7013806EBAF
:1009EC00860303EB8303B0FBF3F30133C3F30B0375
:1009FC0043F4404388E7042386E7012384E701207E
:100A0C0070470120ACE700BFA08601007F841E0068
:100A1C0083DE1B43FF083D00D34D621082B0084BB0
:100A2C001B68084AA2FB03235B0A00FB03F3019338
:100A3C0000BF019B5A1E0192002BF9D102B07047E6
:100A4C0000000020D34D6210002800F0F18170B539
:100A5C0082B00446036813F0010F2CD0994B5B68ED
:100A6C0003F00C03042B1DD0964B5B6803F00C03B6
:100A7C00082B12D06368B3F5803F41D0002B55D1C1
:100A8C0003F1804303F504331A6822F480321A60B0
:100A9C001A6822F480221A6037E08A4B5B6813F4E0
:100AAC00803FE7D0874B1B6813F4003F03D063688B
:100ABC00002B00F0BF81236813F0020F75D0814B1F
:100ACC005B6813F00C0F5FD07E4B5B6803F00C037C
:100ADC00082B54D02369002B00F08A807A4B01221A
:100AEC001A60FFF7FFFC0546764B1B6813F0020FEC
:100AFC0075D1FFF7F7FC401B0228F5D903209EE1C6
:100B0C00704A136843F480331360636843B3FFF790
:100B1C00E9FC05466B4B1B6813F4003FCBD1FFF788
:100B2C00E1FC401B6428F5D9032088E1B3F5A02F24
:100B3C0009D0644B1A6822F480321A601A6822F4C5
:100B4C0080221A60E1E703F18043A3F53C331A6875
:100B5C0042F480221A601A6842F480321A60D4E798
:100B6C00FFF7C0FC0546574B1B6813F4003FA2D09F
:100B7C00FFF7B8FC401B6428F5D903205FE1514B0B
:100B8C005B6813F4803FA5D14E4B1B6813F0020F2A
:100B9C0003D02369012B40F04F814A4A136823F09C
:100BAC00F803616943EAC1031360236813F0080F6B
:100BBC0033D0A369002B5CD0434B0122C3F88024B3
:100BCC00FFF790FC05463F4B5B6A13F0020F21D1F7
:100BDC00FFF788FC401B0228F5D903202FE1394A86
:100BEC00136823F0F803616943EAC1031360DCE77F
:100BFC00354B00221A60FFF775FC0546314B1B681C
:100C0C0013F0020FD1D0FFF76DFC401B0228F5D971
:100C1C00032014E10120FFF701FF236813F0040FF8
:100C2C0000F09680274BDB6913F0805F34D1254BA5
:100C3C00DA6942F08052DA61DB6903F08053019388
:100C4C00019B0125214B1B6813F4807F26D0E368A0
:100C5C00012B3DD0002B53D103F1804303F504331A
:100C6C001A6A22F001021A621A6A22F004021A624B
:100C7C0033E0154B0022C3F88024FFF733FC054604
:100C8C00104B5B6A13F0020FC7D0FFF72BFC401B15
:100C9C000228F5D90320D2E00025D3E70B4A1368CC
:100CAC0043F480731360FFF71DFC0646074B1B686B
:100CBC0013F4807FCBD1FFF715FC801B6428F5D98A
:100CCC000320BCE0001002400000424200700040D3
:100CDC005F4A136A43F001031362E36833B3FFF70F
:100CEC0001FC06465A4B1B6A13F0020F2FD1FFF77B
:100CFC00F9FB801B41F288339842F3D903209EE024
:100D0C00052B09D0524B1A6A22F001021A621A6A98
:100D1C0022F004021A62E0E74D4B1A6A42F0040218
:100D2C001A621A6A42F001021A62D6E7FFF7DAFB7E
:100D3C000646474B1B6A13F0020F08D0FFF7D2FB95
:100D4C00801B41F288339842F3D9032077E0E5B950
:100D5C00E369002B72D03E4A526802F00C02082A5A
:100D6C0056D0022B17D03B4B00221A66FFF7BAFB6A
:100D7C000446374B1B6813F0007F47D0FFF7B2FBDC
:100D8C00001B0228F5D9032059E0314AD36923F01E
:100D9C008053D361DCE72F4B00221A66FFF7A2FBCE
:100DAC0005462B4B1B6813F0007F06D0FFF79AFB10
:100DBC00401B0228F5D9032041E0236AB3F5803F9C
:100DCC001AD023494B6823F47413226A606A0243D5
:100DDC0013434B601F4B01221A66FFF783FB04463B
:100DEC001B4B1B6813F0007F0ED1FFF77BFB001B26
:100DFC000228F5D9032022E0154A536823F4003366
:100E0C00A1680B435360DCE7002018E0002016E0DB
:100E1C00012B16D00E4B5B6803F48031226A914291
:100E2C0011D103F47013626A93420ED1002006E0D4
:100E3C0001207047012002E0012000E0002002B0F8
:100E4C0070BD0120FBE70120F9E70120F7E700BFA7
:100E5C00001002400000424286B0174B0FCB0DF140
:100E6C00180C0CE90F0040F20123ADF80430134BC1
:100E7C005B6803F00C02082A02D0114806B07047D8
:100E8C00C3F3834218326A4412F8100C13F4803FF7
:100E9C000DD00A4B5B68C3F3404318336B4413F813
:100EAC00143C074A02FB00F0B0FBF3F0E6E7054BFD
:100EBC0003FB00F0E2E700BF5412000800100240F0
:100ECC0000127A0000093D00002800F0A08070B5E7
:100EDC000D460446524B1B6803F007038B420BD2A2
:100EEC004F4A136823F007030B431360136803F096
:100EFC0007038B4240F08D80236813F0020F17D04C
:100F0C0013F0040F04D0474A536843F4E063536072
:100F1C00236813F0080F04D0424A536843F460531B
:100F2C005360404A536823F0F003A1680B435360AD
:100F3C00236813F0010F31D06368012B20D0022BF2
:100F4C0025D0384A126812F0020F64D035494A682D
:100F5C0022F0030213434B60FFF7C4FA0646314BF1
:100F6C005B6803F00C036268B3EB820F16D0FFF7DB
:100F7C00B9FA801B41F288339842F0D9032045E03E
:100F8C00284A126812F4003FE0D101203EE0254AC5
:100F9C00126812F0007FD9D1012037E0204B1B687A
:100FAC0003F00703AB420AD91D4A136823F0070369
:100FBC002B431360136803F00703AB422DD1236856
:100FCC0013F0040F06D0174A536823F4E063E1686A
:100FDC000B435360236813F0080F07D0114A536872
:100FEC0023F46053216943EAC1035360FFF734FFD4
:100FFC000C4B5B68C3F303130B4AD35CD8400B4B0D
:10100C0018600B4B1868FFF729FA002070BD0120FF
:10101C0070470120FAE70120F8E70120F6E700BF4E
:10102C0000200240001002403C120008000000208A
:10103C0008000020014B1868704700BF000000201A
:10104C0008B5FFF7F7FF044B5B68C3F30223034AB1
:10105C00D35CD84008BD00BF001002404C12000801
:10106C0008B5FFF7E7FF044B5B68C3F3C223034AE1
:10107C00D35CD84008BD00BF001002404C120008E1
:10108C0010B504460268136923F44053C1680B433E
:10109C00136183680269134342691A430168CB6880
:1010AC0023F4B05323F00C031343CB600268536951
:1010BC0023F4407381690B4353610268134B9A42CA
:1010CC0020D0FFF7BDFF024602EB820202EB820248
:1010DC0063689B00B2FBF3F20D48A0FB0231490997
:1010EC00642303FB11231B013233A0FB03235B0995
:1010FC0003F0F00202EB011203F00F03216813441A
:10110C008B6010BDFFF7ACFF0246DDE700380140F5
:10111C001F85EB5158B310B5044690F83D300BB316
:10112C00242384F83D302268D36823F40053D36021
:10113C002046FFF7A5FF2268136923F4904313613F
:10114C002268536923F02A0353612268D36843F45D
:10115C000053D36000202064202384F83D3084F8B1
:10116C003E3010BD80F83C30FFF734F9D8E7012051
:10117C00704700000C480D490D4A002302E0D4587A
:10118C00C4500433C4188C42F9D30A4A0A4C0023C5
:10119C0001E013600432A242FBD3FFF75DF900F0CB
:1011AC000FF8FFF797F87047000000200C000020A4
:1011BC00701200080C000020C4000020FEE70000A4
:1011CC0070B500260C4D0D4C641BA410A64209D121
:1011DC0000F022F800260A4D0A4C641BA410A6420B
:1011EC0005D170BD55F8043B98470136EEE755F82C
:1011FC00043B98470136F2E76812000868120008B1
:10120C00681200086C12000803460244934200D195
:10121C00704703F8011BF9E7F8B500BFF8BC08BC30
:10122C009E467047F8B500BFF8BC08BC9E46704798
:10123C00000000000000000001020304060708097A
:10124C00000000000102030402030405060708095C
:0C125C000A0B0C0D0E0F1010000000001B
:041268003101000848
:04126C000D01000868
:0C1270000024F400010000001000000049
:04000005080011815D
:00000001FF
